:1000000015C1000043C1000041C100003FC1000014
:100010003DC100003BC1000039C1000037C10000F4
:1000200035C1000005C7000003C7000001C700007C
:100030002DC100002BC1000029C1000027C1000014
:1000400025C1000086C7000021C100001FC10000BB
:100050001DC100001BC1000019C100009FC60000A7
:1000600015C1000065C600003AC600000FC10000BF
:100070000DC100000BC1000009C1000007C1000054
:100080003BC7000003C1000001C10000FFC0000029
:10009000FDC00000FBC00000F9C00000F7C0000078
:1000A000F5C00000F3C00000FAC60000EFC0000079
:1000B000EDC00000EBC00000E9C00000C3C60000B6
:1000C000E5C00000E3C00000E1C00000DFC00000A8
:1000D000DDC00000DBC00000D9C00000D7C00000B8
:1000E000D5C00000ED02F002DF02E302E7022703C1
:1000F000F402F802FE02020306030C0310031403C9
:1001000027031A031E0322030000210024002700F6
:100110002A002D0030003300010100000401070116
:100120000A0100002200250028002B002E003100CB
:10013000340002010000050108010B0100000A0B58
:1001400002090C0D0E080703040100000000000066
:10015000000000000000000000000000000000009F
:10016000000000000000000012111000000000005C
:10017000000000000000000000000000000000007F
:100180000000000020002300260029002C002F0082
:100190003200000100000301060109010505050503
:1001A000070508080808020202020A0A08080404EF
:1001B000040401010101010101010303030303031D
:1001C0000303040707070C0C0C0C0C0C0C0C0202AC
:1001D000020206060606060606060B0B0B0B0B0BA9
:1001E0000B0B010210202008081020401020408036
:1001F00002010201080402010102040810204080EB
:100200008040201008040201800402018040201078
:1002100008040201080402010102040810204080C1
:1002200001020408102040803708D30A11241FBEA1
:10023000CFEFD1E2DEBFCDBF00E00CBF13E0A0E006
:10024000B2E0E4E5FEE100E00BBF02C007900D92D2
:10025000A234B107D9F724E0A2E4B3E001C01D92B3
:10026000AD39B207E1F711E0C5E1D1E000E006C029
:1002700021970109802FFE010E94F30CC431D107A0
:1002800080E00807A9F739D70C94190FB9CE089563
:10029000CF92DF92EF92FF920F931F93CF93DF9352
:1002A0006C017A018B01C0E0D0E0CE15DF0581F052
:1002B000D8016D918D01D601ED91FC910190F081F5
:1002C000E02DC6011995892B11F02196EECF7E0104
:1002D000C701DF91CF911F910F91FF90EF90DF90B9
:1002E000CF900895FC01538D448D252F30E0842F4D
:1002F00090E0821B930B541710F0CF96089501974E
:100300000895FC01918D828D981761F0828DDF0137
:10031000A80FB11D5D968C91928D9F5F9F73928FF8
:1003200090E008958FEF9FEF08952FB7F894809194
:10033000560390915703A0915803B09159032FBFD2
:100340008093F2039093F303A093F403B093F50327
:100350008AEE93E0D6DF97FF26C02FB7F8948091FE
:10036000560390915703A0915803B09159032FBFA2
:100370004091F2035091F3036091F4037091F503FF
:10038000841B950BA60BB70B4091EE035091EF0326
:100390006091F0037091F10384179507A607B707E2
:1003A000B8F28FEF9FEF0895FC01918D828D981721
:1003B00031F0828DE80FF11D858D90E008958FEF6B
:1003C0009FEF0895FC01918D228D892F90E0805C34
:1003D0009F4F821B91098F73992708958AEE93E0AE
:1003E000F1DF21E0892B09F420E0822F0895FC0140
:1003F000848DDF01A80FB11DA35ABF4F2C91848DAE
:1004000090E001968F739927848FA689B7892C93E2
:10041000A089B1898C91837080648C93938D848D35
:10042000981306C00288F389E02D80818F7D808338
:100430000895EF92FF920F931F93CF93DF93EC01F8
:1004400081E0888F9B8D8C8D981305C0E889F98990
:10045000808185FD25C0F62E0B8D10E00F5F1F4FAC
:100460000F731127E02E8C8DE8120BC00FB607FC1E
:10047000FACFE889F989808185FFF5CFCE01B7DF12
:10048000F2CF8B8DFE01E80FF11DE35AFF4FF08292
:100490009FB7F8940B8FEA89FB89808180620AC03C
:1004A0009FB7F894EE89FF896083E889F989808194
:1004B0008370806480839FBF81E090E0DF91CF9163
:1004C0001F910F91FF90EF900895CF93DF93EC0170
:1004D000888D8823C1F0EA89FB89808185FD05C06C
:1004E000A889B9898C9186FD0EC00FB607FCF5CF9F
:1004F000808185FFF2CFA889B9898C9185FFEDCFE6
:10050000CE0175DFE8CFDF91CF91089580E090E0D4
:10051000892B19F063DF811125C080E090E0892BE1
:1005200041F080E090E0892B21F00E9400008111D1
:100530001CC080E090E0892B41F080E090E0892BA6
:1005400021F00E940000811113C080E090E0892B0F
:10055000A1F080E090E0892B81F00E9400008111E1
:100560000AC008950E940000D8CF0E940000E1CF89
:100570000E940000EACF0C9400000895362F90E00E
:10058000FC01E45CFE4F4491FC01EE51FE4F2491CE
:10059000FC01E456FE4F9491992309F46CC0442366
:1005A00009F455C050E0FA013197E231F10508F045
:1005B0004EC08827EE58FF4F8F4F0C94F30C80915C
:1005C00080008F7707C0809180008F7D03C080916D
:1005D0008000877F809380003AC084B58F7702C007
:1005E00084B58F7D84BD33C08091B0008F7703C008
:1005F0008091B0008F7D8093B00029C080919000E1
:100600008F7707C0809190008F7D03C0809190000C
:10061000877F809390001BC08091A0008F7707C0D8
:100620008091A0008F7D03C08091A000877F809380
:10063000A0000DC0809120018F7707C0809120011C
:100640008F7D03C080912001877F80932001E92F57
:10065000F0E0EE0FFF1FEE5DFE4FA591B4919FB746
:10066000F894311104C08C912095282302C0EC919C
:100670002E2B2C939FBF0895CF93DF9390E0FC0126
:10068000EE51FE4F2491FC01E456FE4F84918823E5
:1006900061F190E0880F991FFC01E85FFE4FC59162
:1006A000D491FC01EE5DFE4FA591B491611109C09A
:1006B0009FB7F8948881209582238883EC912E231C
:1006C0000BC0623061F49FB7F8948881322F309567
:1006D00083238883EC912E2B2C939FBF06C08FB76A
:1006E000F894E8812E2B28838FBFDF91CF91089556
:1006F000CF93DF93EC018881803308F04CC061E038
:1007000083E0BADF8881E82FF0E09F01220F331FDA
:10071000E20FF31FE65AFC4F9081907C9360908328
:1007200019821A826CE00E94E70C9CE0899FB0015C
:10073000112440E050E09B01240F351FF901EE0F1A
:10074000FF1F2E0F3F1FF901E65AFC4F908196FDC7
:1007500016C04F5F5F4F4C30510569F78130F9F497
:100760001092800082E080938100109285001092A8
:100770008400B19A80916F00826080936F00E8815D
:10078000F0E0CF01880F991FE80FF91FE65AFC4FE0
:100790008081806480838881DF91CF910895823049
:1007A00061F4109290008093910010929500109245
:1007B000940088BB80937100E2CF833069F410927B
:1007C000A00082E08093A1001092A5001092A400E6
:1007D00089BB80937200D3CF8111D1CF10922001B9
:1007E00082E08093210110922501109224018ABB9E
:1007F00080937300C4CF3FB7F89480914A039091DF
:100800004B03A0914C03B0914D0326B5A89B05C0A6
:100810002F3F19F00196A11DB11D3FBFBA2FA92F7F
:10082000982F8827820F911DA11DB11DBC01CD01FC
:1008300042E0660F771F881F991F4A95D1F70895E8
:100840008F929F92AF92BF92CF92DF92EF92FF92E0
:100850006B017C01D0DF4B015C01C114D104E104C8
:10086000F104E9F0C8DFDC01CB0188199909AA0974
:10087000BB09883E9340A105B10578F321E0C21A77
:10088000D108E108F10888EE880E83E0981EA11CCB
:10089000B11CC114D104E104F10421F7DECFFF90B3
:1008A000EF90DF90CF90BF90AF909F908F90089582
:1008B00080E090E00895CF92DF92EF92FF92CF9385
:1008C000DF93EC01603282E078070CF03BC077FDEB
:1008D00006C0653B71052CF064EB70E002C060E07F
:1008E00070E0898128E830E06901C81AD10887FDE5
:1008F000D394CC0CDD1CCC0CDD1C0D2C000CEE08B4
:10090000FF088A8128E532E0281B310987FD3395ED
:10091000220F331F220F331FC901330FAA0BBB0B4A
:100920009C01AD012C193D094E095F09DB017FD700
:1009300024EB30E040E050E054D7C20ED31EE41E5A
:10094000F51EB6013881303380F5298188E890E0C2
:10095000821B910927FD9395880F991F880F991F76
:100960006817790784F08A8148E552E0481B5109ED
:1009700087FD5395440F551F440F551FCB01461754
:1009800057070CF4CA010297880F991F4FB7F894C4
:10099000232F30E0F901EE0FFF1F2E0F3F1FF9014B
:1009A000E65AFC4F928381834FBFDF91CF91FF9036
:1009B000EF90DF90CF900895CF92DF92EF92FF9269
:1009C0000F931F93CF93DF936C018B017A01EC019E
:1009D000CE5BDC4F888187FF04C0FB01118210824F
:1009E00024C02CE02C9DC0012D9D900D1124288148
:1009F000AC01420F511D27FD5A952091460330E06E
:100A00004217530794F42881AC01420F511D27FD72
:100A10005A959A01FA01EE0FFF1F2E0F3F1FF901A1
:100A2000E65AFC4F208126FD19C088818F5F88839C
:100A30002CE02C9DC0012D9D900D11242881AC012E
:100A4000420F511D27FD5A952091460330E0421771
:100A50005307B4F428812C303CF112C02881820F56
:100A6000911D27FD9A95FC01EE0FFF1F8E0F9F1F12
:100A7000FC01E65AFC4F808160E08F737FDDD5CFAB
:100A8000F80180819181049680349C4918F480E4B7
:100A90009CE904C0F801808191810496F70191835B
:100AA00080838FEF888344C0F80140815181288181
:100AB000BC01620F711D27FD7A959B01FB01EE0FB2
:100AC000FF1F2E0F3F1FF901E65AFC4F2181328193
:100AD000240F351FF701318320832881AC01420F99
:100AE000511D27FD5A959A01FA01EE0FFF1F2E0F97
:100AF0003F1FF901E65AFC4F208126FF19C02881CB
:100B0000820F911D27FD9A95FC01EE0FFF1F8E0F9E
:100B10009F1FFC01E65AFC4F808161E08F73DF91DB
:100B2000CF911F910F91FF90EF90DF90CF9026CD46
:100B3000DF91CF911F910F91FF90EF90DF90CF90B9
:100B4000089560E070E086E994E0B5DE60E070E072
:100B500083E994E0B0DE60E070E080E994E0ABDE31
:100B600060E070E08DE894E0A6CE009761F0FC01B3
:100B700001900020E9F73197AF01481B590BBC01E8
:100B80008AEE93E085CB80E090E00895CF93DF93E9
:100B9000ECDFEC0188E192E0E8DF8C0F9D1FDF9134
:100BA000CF9108950F931F9390E0FC01EE51FE4FFB
:100BB0006491FC01E456FE4FE491F0E0EE0FFF1F5C
:100BC000EE57FE4F8591949100E412E42FE030E05F
:100BD000462FECD1611571058105910549F0DC01C5
:100BE000CB010196A11DB11DBC01CD019F7003C0B9
:100BF00060E070E0CB011F910F910895FC0180919E
:100C00008B0490918C04892B21F421E0309749F4D6
:100C100013C08091870490918804309731F421E0CB
:100C2000FC018081882341F006C0BF010E94090FAA
:100C300021E0892B09F020E0822F08950F931F9364
:100C4000CF93DF93EC0188819981009729F02A8165
:100C50003B812617370780F48B016F5F7F4FECD7FE
:100C6000009761F0998388831B830A832C813D81DF
:100C7000232B11F4FC01108281E001C080E0DF91A0
:100C8000CF911F910F910895EF92FF920F931F93B1
:100C9000CF93DF93EC017B018A01BA01CFDF28817A
:100CA000398181110CC02115310511F0C9013BD7E3
:100CB000198218821D821C821B821A8206C01D8323
:100CC0000C83B701C9010E94120FCE01DF91CF91B1
:100CD0001F910F91FF90EF9008950E94FC0E1F92BC
:100CE0000F920FB60F9211240BB60F922F933F93D2
:100CF0004F935F936F937F938F939F93AF93BF9324
:100D0000EF93FF938AEE93E072DBFF91EF91BF9137
:100D1000AF919F918F917F916F915F914F913F9193
:100D20002F910F900BBE0F900FBE0F901F90189534
:100D30001F920F920FB60F9211240BB60F922F93A2
:100D40008F939F93EF93FF93E091FA03F091FB034E
:100D50008081E0910004F091010482FD12C0908135
:100D6000809103048F5F8F7320910404821751F0E8
:100D7000E0910304F0E0E651FC4F958F809303046B
:100D800001C08081FF91EF919F918F912F910F90E2
:100D90000BBE0F900FBE0F901F9018951F920F92D1
:100DA0000FB60F9211242F933F938F939F93AF937E
:100DB000BF938091560390915703A0915803B0912F
:100DC00059033091490323E0230F2D3720F4019676
:100DD000A11DB11D05C026E8230F0296A11DB11D5E
:100DE000209349038093560390935703A09358038D
:100DF000B093590380914A0390914B03A0914C0307
:100E0000B0914D030196A11DB11D80934A039093AB
:100E10004B03A0934C03B0934D03BF91AF919F91AF
:100E20008F913F912F910F900FBE0F901F901895AB
:100E30001F920F920FB60F9211240F900FBE0F90BA
:100E40001F9018951F920F920FB60F9211240BB698
:100E50000F922F933F934F935F936F937F938F9353
:100E60009F93AF93BF93EF93FF9348E251E064E207
:100E700071E080E090E0A0DDFF91EF91BF91AF9134
:100E80009F918F917F916F915F914F913F912F91A2
:100E90000F900BBE0F900FBE0F901F9018951F92D2
:100EA0000F920FB60F9211240BB60F922F933F9310
:100EB0004F935F936F937F938F939F93AF93BF9362
:100EC000EF93FF9348EA50E064EA70E083E090E03B
:100ED00073DDFF91EF91BF91AF919F918F917F91C2
:100EE0006F915F914F913F912F910F900BBE0F909B
:100EF0000FBE0F901F9018951F920F920FB60F9272
:100F000011240BB60F922F933F934F935F936F93E0
:100F10007F938F939F93AF93BF93EF93FF9348E992
:100F200050E064E970E082E090E046DDFF91EF91EF
:100F3000BF91AF919F918F917F916F915F914F91F1
:100F40003F912F910F900BBE0F900FBE0F901F90EF
:100F500018951F920F920FB60F9211240BB60F9295
:100F60002F933F934F935F936F937F938F939F93B1
:100F7000AF93BF93EF93FF9348E850E064E870E0CD
:100F800081E090E019DDFF91EF91BF91AF919F91CA
:100F90008F917F916F915F914F913F912F910F9022
:100FA0000BBE0F900FBE0F901F901895CF92DF923F
:100FB000EF92FF920F931F93E82FF92F05C0015076
:100FC00011092109310961F1908196239417B9F330
:100FD00005C0015011092109310911F190819623B1
:100FE0009413F7CFC12CD12CE12CF12C0AC08FEF38
:100FF000C81AD80AE80AF80A0C151D052E053F057F
:1010000079F080818623841791F36C2D7D2D8E2DB0
:101010009F2D1F910F91FF90EF90DF90CF9008953B
:1010200060E070E080E090E01F910F91FF90EF9002
:10103000DF90CF900895FC01909146039033A0F487
:1010400081E0890F809346039083892F90E0FC0113
:10105000EE0FFF1F8E0F9F1FFC01E65AFC4F88EB1F
:101060009BE09283818308958FEF80830895EAEE59
:10107000F3E01382128288EE93E0A0E0B0E0848374
:101080009583A683B7838AE092E09183808385EC81
:1010900090E09587848784EC90E09787868780EC42
:1010A00090E0918B808B81EC90E0938B828B82EC33
:1010B00090E0958B848B86EC90E0978B868B118EDD
:1010C000128E138E148E86E994E0B5DF83E994E0E6
:1010D000B2DF80E994E0AFDF8DE894E0ACDFE7E8D1
:1010E000F4E011821082138212821582148240E091
:1010F00050E06AE172E0CF01C7CDCF93DF93CDB767
:10110000DEB728970FB6F894DEBF0FBECDBF789438
:1011100084B5826084BD84B5816084BD85B58260FC
:1011200085BD85B5816085BD80916E0081608093AD
:101130006E00109281008091810082608093810016
:101140008091810081608093810080918000816026
:10115000809380008091B10084608093B100809181
:10116000B00081608093B000809191008260809394
:101170009100809191008160809391008091900016
:101180008160809390008091A10082608093A10093
:101190008091A10081608093A1008091A000816076
:1011A0008093A00080912101826080932101809131
:1011B00021018160809321018091200181608093D1
:1011C000200180917A00846080937A0080917A0077
:1011D000826080937A0080917A00816080937A00A7
:1011E00080917A00806880937A001092C100E0912B
:1011F000FA03F091FB0382E08083E091F603F09123
:10120000F7031082E091F803F091F90380E1808305
:1012100010920204E091FE03F091FF0386E08083C8
:10122000E091FC03F091FD03808180618083E09177
:10123000FC03F091FD03808188608083E091FC03D2
:10124000F091FD03808180688083E091FC03F09140
:10125000FD0380818F7D80838BE192E097DC83E4C6
:1012600092E094DC61E08DE007DA60E087E004DA88
:1012700060E089E001DA61E088E0FED961E08AE0BF
:10128000FBD986E994E034DA83E994E031DA80E945
:1012900094E02EDA8DE894E02BDA83E792E065DCC7
:1012A00089E992E062DC89E192E05FDC8EEE92E017
:1012B0005CDC89E192E059DC8BE8E82EFF24F394B2
:1012C0008AEE93E07FD8892BD9F38AEE93E07AD81F
:1012D000892B09F44DC01A8219821C821B821E823E
:1012E0001D8240E050E06AE172E0CE010196CCDC64
:1012F0001CD897FD19C08F8318860D811E810F5F42
:101300001F4FB801CE01019699DC882389F329810A
:101310003A818D819E81BE01695F7F4F820F931F4D
:1013200081D51E830D83E4CF80918704909188043A
:10133000009739F069817A816115710509F021C141
:10134000F2D389819A8190938804809387048B815A
:101350009C8190938A04809389048D819E819093CF
:101360008C0480938B041A82198289819A81DBD341
:1013700060E088E003D961E088E000D9C701019707
:10138000F1F760E088E0FAD887E00CDC4B015C0103
:1013900015D12AE939E949E550E46FD120E030E080
:1013A00040E05FE36AD1E2D209D120E030E048ECCE
:1013B00052E474D22B013C0181E7881684E9980637
:1013C000A104B1049CF085E293E0E0DB61E08DE0F4
:1013D000D5D864E670E080E090E032DA60E08DE03D
:1013E000CDD864E670E080E090E02ADA64E670E050
:1013F00080E090E025DA40925203509253036092CD
:1014000054037092550360E08AE0B8D861E08AE046
:10141000B5D8C7010197F1F760E08AE0AFD889E05D
:10142000C1DB2B013C01CAD02AE939E949E550E486
:1014300024D120E030E040E05FE31FD197D2BED05E
:1014400020E030E048EC52E429D24B015C0181E716
:10145000481684E95806610471049CF085E293E023
:1014600095DB61E08DE08AD864EF71E080E090E088
:10147000E7D960E08DE082D864EF71E080E090E031
:10148000DFD964E670E080E090E0DAD980924E0324
:1014900090924F03A0925003B092510389E393E0DE
:1014A000ADDB20E030E048EC52E4882309F43BC097
:1014B00060915203709153038091540390915503AE
:1014C00077D0181654F060E070E086E994E0F3D924
:1014D00060E070E083E994E024C020E030E048EC74
:1014E00052E4C501B40164D0181644F060E070E025
:1014F00080E994E0E0D960E070E011C06AE570E056
:1015000086E994E0D8D96AE570E083E994E0D3D91C
:101510006AE570E080E994E0CED96AE570E08DE894
:1015200094E0C9D91FC06091520370915303809118
:101530005403909155033CD018162CF08BE393E0A4
:101540005DDB8111C0CF20E030E048EC52E4C50102
:10155000B4012ED018162CF08DE393E04FDB8111EF
:10156000C5CFEFDA41E050E06FE373E087E894E045
:101570008BDB64E670E080E090E062D90E94860236
:101580009FCE4091890450918A042D813E8142175B
:10159000530708F4D5CE46D48D819E8190938C0458
:1015A00080938B04E2CE8091870490918804BBC223
:1015B00040D008F481E00895E89409C097FB3EF418
:1015C00090958095709561957F4F8F4F9F4F992390
:1015D000A9F0F92F96E9BB279395F695879577950E
:1015E0006795B795F111F8CFFAF4BB0F11F460FFCE
:1015F0001BC06F5F7F4F8F4F9F4F16C0882311F026
:1016000096E911C0772321F09EE8872F762F05C039
:10161000662371F096E8862F70E060E02AF09A95D4
:10162000660F771F881FDAF7880F9695879597F9C9
:101630000895990F0008550FAA0BE0E8FEEF161663
:101640001706E807F907C0F012161306E407F507B6
:1016500098F0621B730B840B950B39F40A2661F02A
:10166000232B242B252B21F408950A2609F4A140CD
:10167000A6958FEF811D811D08950BD078C069D08C
:1016800028F06ED018F0952309F05AC05FC01124DD
:10169000A2C07ED0A0F3959FD1F3950F50E0551FC7
:1016A000629FF001729FBB27F00DB11D639FAA27B7
:1016B000F00DB11DAA1F649F6627B00DA11D661F06
:1016C000829F2227B00DA11D621F739FB00DA11D27
:1016D000621F839FA00D611D221F749F3327A00DE1
:1016E000611D231F849F600D211D822F762F6A2F7D
:1016F00011249F5750408AF0E1F088234AF0EE0F02
:10170000FF1FBB1F661F771F881F91505040A9F70E
:101710009E3F510570F014C05EC05F3FECF3983EF1
:10172000DCF3869577956795B795F795E7959F5F75
:10173000C1F7FE2B880F911D9695879597F908950F
:1017400097F99F6780E870E060E008959FEF80EC74
:10175000089500240A941616170618060906089517
:1017600000240A9412161306140605060895092E7D
:101770000394000C11F4882352F0BB0F40F4BF2BEC
:1017800011F460FF04C06F5F7F4F8F4F9F4F08952C
:1017900057FD9058440F551F59F05F3F71F0479522
:1017A000880F97FB991F61F09F3F79F08795089507
:1017B000121613061406551FF2CF4695F1DF08C026
:1017C000161617061806991FF1CF86957105610543
:1017D00008940895E894BB2766277727CB0197F9EB
:1017E0000895052E97FB16F400940FD057FD05D0F1
:1017F00024D007FC02D046F408C05095409530959F
:1018000021953F4F4F4F5F4F08959095809570956C
:1018100061957F4F8F4F9F4F089531D0A59F900DB9
:10182000B49F900DA49F800D911D11240895B7FFC2
:10183000F4CFF3DF821B930B0895A1E21A2EAA1BAB
:10184000BB1BFD010DC0AA1FBB1FEE1FFF1FA21770
:10185000B307E407F50720F0A21BB30BE40BF50B6D
:10186000661F771F881F991F1A9469F760957095F6
:10187000809590959B01AC01BD01CF010895A29F79
:10188000B001B39FC001A39F700D811D1124911D54
:10189000B29F700D811D1124911D08950CD067CF4A
:1018A0005FDF40F056DF30F021F45F3F19F048CFA2
:1018B000511191CF4BCF6CDF98F39923C9F3552386
:1018C000B1F3951B550BBB27AA2762177307840733
:1018D00038F09F5F5F4F220F331F441FAA1FA9F3E9
:1018E00033D00E2E3AF0E0E830D091505040E695DB
:1018F000001CCAF729D0FE2F27D0660F771F881F3C
:10190000BB1F261737074807AB07B0E809F0BB0B2A
:10191000802DBF01FF2793585F4F2AF09E3F51054E
:1019200068F00ECF58CF5F3FECF3983EDCF386951E
:1019300077956795B795F7959F5FC9F7880F911DC4
:101940009695879597F90895E1E0660F771F881FB0
:10195000BB1F621773078407BA0720F0621B730B63
:10196000840BBA0BEE1F88F7E095089504D06894B5
:10197000B11131CF089514DF88F09F5790F0B92F3F
:101980009927B751A0F0D1F0660F771F881F991FD4
:101990001AF0BA95C9F712C0B13081F01BDFB1E07F
:1019A000089518CF672F782F8827B85F39F0B93F8F
:1019B000CCF3869577956795B395D9F73EF49095D6
:1019C0008095709561957F4F8F4F9F4F0895991B1C
:1019D00079E004C0991F961708F0961B881F7A9526
:1019E000C9F780950895EE0FFF1F881F8BBF0790E2
:1019F000F691E02D19940F931F93CF93DF938230CC
:101A0000910510F482E090E0E0919B04F0919C0439
:101A100020E030E0A0E0B0E0309719F14081518142
:101A20000281138148175907C8F08417950769F494
:101A3000109731F012960C93129713961C9327C0AF
:101A400000939B0410939C0422C02115310519F0CA
:101A50004217530718F49A01BD01EF01DF01F801A5
:101A6000DBCF21153105F9F0281B390B2430310566
:101A700080F48A819B816115710521F0FB019383BC
:101A8000828304C090939C0480939B04FE01329651
:101A900044C0FE01E20FF31F81939193225031095C
:101AA000398328833AC02091990430919A04232BDA
:101AB00041F4209102023091030230939A04209362
:101AC000990420910002309101022115310541F461
:101AD0002DB73EB74091040250910502241B350BEF
:101AE000E0919904F0919A04E217F307A0F42E1BF9
:101AF0003F0B2817390778F0AC014E5F5F4F241772
:101B0000350748F04E0F5F1F50939A044093990495
:101B10008193919302C0E0E0F0E0CF01DF91CF919B
:101B20001F910F910895CF93DF93009709F481C01F
:101B3000FC01329713821282A0919B04B0919C0405
:101B4000109781F420813181820F931F2091990495
:101B500030919A042817390751F5F0939A04E093CD
:101B6000990467C0ED0120E030E0CE17DF0740F4B4
:101B70004A815B819E0141155105F1F0EA01F5CFE3
:101B8000D383C28340815181840F951FC817D90721
:101B900059F488819981840F951F029691838083DF
:101BA0008A819B81938382832115310529F4F093E7
:101BB0009C04E0939B043DC0E901FB83EA834991C7
:101BC0005991C40FD51FEC17FD0761F480819181F5
:101BD000840F951F0296E9019983888382819381FE
:101BE0009B838A83E0E0F0E012968D919C9113979D
:101BF000009719F0FD01DC01F7CF8D919C911197B1
:101C00009D012E5F3F4F820F931F209199043091C9
:101C10009A042817390769F4309729F410929C0424
:101C200010929B0402C013821282B0939A04A09374
:101C30009904DF91CF9108956F927F928F929F9236
:101C4000AF92BF92CF92DF92EF92FF920F931F93CA
:101C5000CF93DF93009781F4CB01DF91CF911F9158
:101C60000F91FF90EF90DF90CF90BF90AF909F903B
:101C70008F907F906F90BFCEFC01E60FF71F9C0105
:101C800022503109E217F30708F4A5C0EC01D9018D
:101C90000D911C91119706171707A8F00530110533
:101CA00008F497C0C80104978617970708F491C0F5
:101CB00002501109061B170B019311936D937C932E
:101CC000CF0131DF86C05B01A01AB10A4C01800E42
:101CD000911EA0919B04B0919C04612C712CE12C6D
:101CE000F12C109709F446C08D919C911197A8157D
:101CF000B905B1F56C0142E0C40ED11CCA14DB0475
:101D000078F14C018A189B08640142E0C40ED11C92
:101D10001296BC9012971396AC91B5E0CB16D104F5
:101D200040F0B282A38391828082D9016D937C932B
:101D300009C00E5F1F4F800F911FF90191838083AF
:101D4000EB2DFA2FE114F10431F0D7011396FC9337
:101D5000EE9312973EC0F0939C04E0939B0439C02D
:101D60006816790608F43C017D0112960D90BC912D
:101D7000A02DB7CF8091990490919A048816990666
:101D8000E1F466167706C8F4809100029091010292
:101D9000009741F48DB79EB740910402509105021F
:101DA000841B950BE817F907B0F4F0939A04E093BD
:101DB0009904F901718360830CC0CB011CDE7C01A6
:101DC000009749F0A801BE011BD0CE01ACDEC701CF
:101DD00004C0CE0102C080E090E0DF91CF911F915E
:101DE0000F91FF90EF90DF90CF90BF90AF909F90BA
:101DF0008F907F906F90089581E090E0F89419C0E3
:101E0000FB01DC0102C001900D9241505040D8F717
:101E10000895FB01DC018D91019080190110D9F327
:101E2000990B0895FB01DC0101900D920020E1F770
:101E3000089511E0C5E1D1E000E005C0802FFE016A
:101E4000D2DD2196011DC631D10780E00807B1F728
:041E5000F894FFCF34
:101E540000009D0480000000000019024801720186
:101E64006502E2018101D4010D0A005B696E666FAF
:101E7400202E2E205D2073797374656D2073746138
:101E84007274656420746F20696E697469616C6929
:101E94007365005B696E666F202E2E205D206D6F6A
:101EA400746F7273207374617274656420737461E7
:101EB4007274656420746F20696E697469616C69F9
:101EC4007365005B696E666F202E2E205D2073792A
:101ED4007374656D20696E697469616C69736520DA
:101EE400646F6E65202E2E2E00496620796F752052
:101EF4006E65656420746F20636865636B20746825
:101F0400652073797374656D20776F726B696E6782
:101F140020756E636F6D6D656E7420616C6C2074DA
:101F240068652073657269616C20706172742069E0
:101F34006E207468652070726F6772616D007768D7
:101F4400696C652073797374656D20776F726B6942
:101F54006E6720636F6D6D656E7420616C6C2074A8
:101F6400686520756E636F6D6D656E746564206C55
:101F7400696E65730053797374656D206F75742091
:101F84006F662072616E67650061006C00720030DC
:021F940000004B
:00000001FF
